:020000040800F2
:100000007806002089010008550D0008AB0900089A
:10001000510D000843020008050F00080000000011
:10002000000000000000000000000000B50D000806
:100030006504000800000000570D0008A10E00082C
:10004000A3010008A3010008A3010008A301000800
:10005000A3010008A3010008A3010008A3010008F0
:10006000A3010008A3010008A3010008A3010008E0
:10007000A3010008A3010008A3010008A3010008D0
:10008000A3010008A3010008A3010008A3010008C0
:10009000A3010008A3010008A3010008A3010008B0
:1000A000A3010008A3010008A3010008A3010008A0
:1000B000A3010008A3010008A3010008A301000890
:1000C000A3010008A3010008A3010008A301000880
:1000D000A3010008A3010008A3010008A301000870
:1000E000A3010008A3010008A301000800F002F822
:1000F00000F03AF80AA090E8000C82448344AAF188
:100100000107DA4501D100F02FF8AFF2090EBAE885
:100110000F0013F0010F18BFFB1A43F0010318473B
:10012000E43B0000043C0000103A24BF78C878C1CA
:10013000FAD8520724BF30C830C144BF04680C60ED
:10014000704700000023002400250026103A28BF35
:1001500078C1FBD8520728BF30C148BF0B60704739
:100160001FB51FBD10B510BD00F031F81146FFF7E7
:10017000F7FF00F0C9FE00F04FF803B4FFF7F2FFFD
:1001800003BC00F057F800000948804709480047C1
:10019000FEE7FEE7FEE7FEE7FEE7FEE7FEE7FEE737
:1001A000FEE7FEE704480549054A064B7047000094
:1001B000A50E0008ED000008780000207806002059
:1001C000780200207802002070477047704775461B
:1001D00000F02CF8AE4605006946534620F00700B3
:1001E000854618B020B5FFF7DDFFBDE820404FF091
:1001F00000064FF000074FF000084FF0000B21F011
:100200000701AC46ACE8C009ACE8C009ACE8C009DD
:10021000ACE8C0098D46704710B50446AFF30080C6
:100220002046BDE81040FFF7A8BF00000048704717
:100230001400002001491820ABBEFEE72600020092
:10024000704700BFFEE710B50121082000F084FDD3
:10025000482000F091F810BD70B505460024002636
:100260001CE05021002000F099F808B9002070BD72
:10027000282000F0C5F86006040E4FF480410A48BB
:1002800000F09FF9012807D144F00104642100F037
:1002900085F808B90020EAE7701CC6B2082EE0D342
:1002A0002C700120E3E70000000C01407CB50446FF
:1002B0000CB900207CBD142000F05EF84FF48041A2
:1002C0002C4800F089F90A2000F09AF84FF4804198
:1002D000284800F07FF9142000F086F84FF48041A0
:1002E000244800F079F9482000F046F80A2000F090
:1002F00087F83C21012000F051F848B1642100202A
:1003000000F04CF820B16E21012000F047F808B948
:100310000020CFE7002508E00DEB0500FFF79CFF6C
:1003200008B90020C6E7681CC5B2052DF4D39DF8B6
:1003300000009DF8011008449DF8021008449DF843
:1003400003100844C6B29DF80400B04201D000205A
:10035000B0E79DF8000020709DF8010060709DF8E6
:100360000200A0709DF80300E0709DF80400207169
:1003700001209FE7000C014038B504464FF480404F
:10038000ADF8000003208DF802008DF803406946A7
:10039000014800F08BF838BD000C01402DE9F04118
:1003A00004460D4600F044F806460C4800680C4927
:1003B000B0FBF1F000FB05F707E000F039F8801B17
:1003C000B84202D30020BDE8F0814FF480410548D7
:1003D00000F0F7F8A042F0D00120F4E70000002080
:1003E00040420F00000C014010B5044603E04FF4FA
:1003F0007A7000F005F8201EA4F10104F7D110BDB9
:1004000010B5014600F014F8024607480068074C92
:10041000B0FBF4F000FB01F300BF00F009F8801A14
:100420009842FAD310BD00000000002040420F00A7
:100430000148406870470000001000E0074800686D
:1004400040F0807005490860002005494860084672
:10045000006840F00100086070470000FCED00E01B
:10046000001000E0704700B5034603E04FF47A70D7
:1004700000F005F8181EA3F10103F7D100BD00EB51
:10048000C001C9004FF0E0225161002191610521B6
:10049000116100BF4FF0E021096901F480310029AA
:1004A000F8D004214FF0E022116170472DE9F041AE
:1004B000024600250026002000230024002791F892
:1004C00003C00CF00F0591F803C00CF0100CBCF148
:1004D000000F03D091F802C04CEA050591F800C066
:1004E000BCF1000F31D0146800202BE04FF0010C5C
:1004F0000CFA00F3B1F800C00CEA03069E4220D1CA
:1005000083004FF00F0C0CFA03F7BC4305FA03FC11
:100510004CEA040491F803C0BCF1280F06D14FF057
:10052000010C0CFA00FCC2F814C00AE091F803C0F8
:10053000BCF1480F05D14FF0010C0CFA00FCC2F8D9
:1005400010C0401C0828D1D31460B1F800C0BCF121
:10055000FF0F34DD546800202EE000F1080C4FF04E
:10056000010808FA0CF3B1F800C00CEA03069E4239
:1005700021D183004FF00F0C0CFA03F7BC4305FAAE
:1005800003FC4CEA040491F803C0BCF1280F05D128
:1005900000F1080C08FA0CF8C2F8148091F803C0B6
:1005A000BCF1480F07D100F1080C4FF0010808FA20
:1005B0000CF8C2F81080401C0828CED35460BDE867
:1005C000F0810246002093680B400BB1012000E04F
:1005D000002070474161704701617047F8B50546DA
:1005E0000F46164600240EE04FF6FF700090325D75
:1005F00004EB440105EB810188B20023394600F089
:1006000005F8601CC4B2062CEED3F8BD2DE9FF4FEF
:1006100085B007469046404600F07BF8FF2801D0A1
:10062000012000E000208346BBF1000F01D018201C
:1006300000E020200646069917318BB207F10B0126
:100640008AB2B91C88B2069900F030FB00245BE046
:1006500004FB06F01821B0FBF1F0C0B20290601C60
:100660007043B0FBF1F0C0B20190002548E00020DB
:100670000090B8F1FF0F39D005FB06F00C21B0FB5C
:10068000F1F0C0B20490681C7043B0FBF1F0C0B24E
:100690000390DDF808A023E0DDF8109018E0BBF12E
:1006A000000F05D052464946404600F045F840B993
:1006B000BBF1000F08D152464946404600F060F8B1
:1006C00010B10120009006E009F1010000F0FF09DF
:1006D00003988145E3DB00BF0AF1010000F0FF0A47
:1006E0000198824502DA00980028D5D0009909B116
:1006F000089900E01299084600F084F9681CC5B218
:100700000C2DB4D3601CC4B2182CA1D309B0BDE821
:10071000F08F0146092905D809B909207047481EFC
:10072000C0B2FBE70A2901D10B20F7E70D2901D15F
:100730000C20F3E7FF20F1E72DE9F04180460C465D
:1007400015464046FFF7E5FF0646FF2E02D1002082
:10075000BDE8F08105EB450000EBD40006EBC601D7
:10076000064A02EBC1010F5C04F007018020C8407B
:10077000384008B10120EBE70020E9E78D170008B9
:1007800070B50346DC01900000EBD100044406483C
:10079000055D01F007068020F040284008B10120E7
:1007A00070BD0020FCE700000C10000838B50446BE
:1007B0000D462346202211460248009500F0CFF84E
:1007C00038BD0000012D000838B504460D4623460B
:1007D000202211460248009500F0C1F838BD000003
:1007E0000135000838B504460D462346202211463F
:1007F0000248009500F0B3F838BD0000012500085C
:100800002DE9FC4106460F4614461D46DDF82080C2
:10081000B8F1000F11D1FF208DF800000E208DF8E7
:1008200001008DF802000A208DF803000E208DF8DB
:1008300004000C208DF805002EE0642C08D3642001
:10084000B4FBF0F00A21B0FBF1F201FB120000E072
:10085000FF208DF800000A2C08D30A20B4FBF0F02A
:100860000A21B0FBF1F201FB120000E0FF208DF83D
:1008700001000A20B4FBF0F100FB11408DF80200EA
:100880000A208DF80300B5FBF0F100FB11508DF844
:1008900004000C208DF805006A4639463046FFF703
:1008A0009DFEBDE8FC81000038B504460D46234698
:1008B000202211460248009500F051F838BD000092
:1008C000011D00082DE9FC4706460F4614461D464B
:1008D000DDE90A89B9F1000F11D1FF208DF8000080
:1008E0000E208DF801008DF802000A208DF803001B
:1008F0000E208DF804000D208DF8050028E0B8F1D9
:10090000000F01D00E2000E0FF208DF800000A2C1F
:1009100008D30A20B4FBF0F00A21B0FBF1F201FB8E
:10092000120000E0FF208DF801000A20B4FBF0F176
:1009300000FB11408DF802000A208DF80300B5FB82
:10094000F0F100FB11508DF804000D208DF805002A
:100950006A4639463046FFF741FEBDE8FC872DE97F
:10096000F05F05460E4617469846DDF82890781E3B
:10097000484483B2701E404482B2494608F10200E6
:1009800000F094F900240AE015F814A005EB4400E7
:1009900090F801B04AEA0B2000F034F8641C06FB22
:1009A00007F0A042F0D8BDE8F09F00BFFEE70000CE
:1009B00008B50121082000F0CFF940F20340ADF85E
:1009C000000003208DF8020010208DF80300694616
:1009D0000A48FFF76BFD0121042000F0BDF9B020AB
:1009E000ADF8000003208DF8020010208DF8030000
:1009F00069460348FFF75AFD08BD0000000C01409E
:100A00000008014010B50446102008490860022083
:100A100007490860201200F0AFF9E0B200F0ACF92D
:100A200010200249091F086010BD00001408014091
:100A3000100C014070B506469F237F220021084616
:100A400000F034F92C2000F06FF9002408E00025B4
:100A500003E03046FFF7D6FF6D1CA02DF9D3641CD0
:100A6000802CF4D370BD10B5FFF7A2FF00F00CF995
:100A7000112000F059F97820FFF7F5FCB12000F0C3
:100A800053F9012000F03CF92C2000F039F92D2019
:100A900000F036F9B22000F047F9012000F030F9FB
:100AA0002C2000F02DF92D2000F02AF9B32000F0C1
:100AB0003BF9012000F024F92C2000F021F92D2031
:100AC00000F01EF9012000F01BF92C2000F018F9AD
:100AD0002D2000F015F9B42000F026F9072000F0D1
:100AE0000FF9C02000F020F9A22000F009F902203F
:100AF00000F006F9842000F003F9C12000F014F999
:100B0000C52000F0FDF8C22000F00EF90A2000F028
:100B1000F7F8002000F0F4F8C32000F005F98A206F
:100B200000F0EEF82A2000F0EBF8C42000F0FCF80A
:100B30008A2000F0E5F8EE2000F0E2F8C52000F091
:100B4000F3F80E2000F0DCF8362000F0EDF8C020BD
:100B500000F0D6F8E02000F0E7F80F2000F0D0F821
:100B60001A2000F0CDF80F2000F0CAF8182000F08D
:100B7000C7F82F2000F0C4F8282000F0C1F820208A
:100B800000F0BEF8222000F0BBF81F2000F0B8F8FB
:100B90001B2000F0B5F8232000F0B2F8372000F059
:100BA000AFF8002000F0ACF8072000F0A9F8022010
:100BB00000F0A6F8102000F0A3F8E12000F0B4F84F
:100BC0000F2000F09DF81B2000F09AF80F2000F095
:100BD00097F8172000F094F8332000F091F82C20BB
:100BE00000F08EF8292000F08BF82E2000F088F815
:100BF000302000F085F8302000F082F8392000F035
:100C00007FF83F2000F07CF8002000F079F8072002
:100C100000F076F8032000F073F8102000F070F870
:100C20002A2000F081F8002000F06AF8002000F08F
:100C300067F8002000F064F87F2000F061F82B20B6
:100C400000F072F8002000F05BF8002000F058F887
:100C5000002000F055F89F2000F052F8F02000F03E
:100C600063F8012000F04CF8F62000F05DF8002059
:100C700000F046F83A2000F057F8052000F040F860
:100C8000292000F051F810BD10B501200649086078
:100C90006420FFF7E8FB01200349091F08603220A8
:100CA000FFF7E1FB10BD0000140C0140F0B5054654
:100CB0000C4616461F462A2000F036F8002000F0A9
:100CC0001FF8E8B200F01CF8002000F019F8B11C81
:100CD000C8B200F015F82B2000F026F8002000F034
:100CE0000FF8E0B200F00CF8002000F009F8791CD1
:100CF000C8B200F005F82C2000F016F8F0BD000096
:100D000010B5044610200649086002200549086015
:100D1000204600F031F810200149091F086010BD7D
:100D200014080140100C014010B50446102006497B
:100D30000860022005490860204600F01DF81020D8
:100D40000149091F086010BD14080140140C01403E
:100D500000BFFEE77047704729B1064A9269024317
:100D6000044B9A6104E0034A92698243014B9A6101
:100D700070470000001002400021082114E000F03C
:100D800080021AB180220A4B1A6003E08022084BCD
:100D90001B1D1A602022064B1B1D1A601B1F1A60A8
:100DA0004206100E4A1ED1B20029E8DC704700004E
:100DB00010080140704710B500F002F810BD0000A7
:100DC0000CB50020019000903348006840F480305A
:100DD0003149086000BF3048006800F400300090DE
:100DE0000198401C0190009818B90198B0F5A06FC7
:100DF000F1D12948006800F4003010B101200090C2
:100E000001E0002000900098012843D123480068A9
:100E100040F01000214908600846006820F00300F7
:100E200008600846006840F0020008601A48406800
:100E3000194948600846406848600846406840F4E0
:100E4000806048600846406820F47C10486008468E
:100E5000406840F4E81048600846006840F0807040
:100E6000086000BF0C48006800F000700028F9D04E
:100E70000948406820F00300074948600846406878
:100E800040F00200486000BF0348406800F00C00DA
:100E90000828F9D10CBD00000010024000200240DB
:100EA0007047000010B51348006840F00100114978
:100EB000086008464068104908400E4948600846E6
:100EC00000680E4908400B4908600846006820F495
:100ED000802008600846406820F4FE0048604FF417
:100EE0001F008860FFF767FF4FF00060044908604B
:100EF00010BD0000001002400000FFF8FFFFF6FEEA
:100F000008ED00E000BFFEE71FB5FFF797FAFFF717
:100F10009AF9FFF7A8FD4FF480603A4908604FF650
:100F2000FF70FFF787FD00210846FFF73FFC2821EF
:100F30000020FFF749FC50210020FFF7B5FC782185
:100F40000020FFF74FFC002000900346024654218A
:100F500001902820FFF7B6FC0020034602467C21C2
:100F600000902820FFF74CFC4FF47A70FFF73CFA12
:100F7000254800684FF47A71B0FBF1F000FB01F5F1
:100F8000FFF756FAA0EB05083BE0FFF751FAA0EB9C
:100F90000800A84235D3FFF74BFA804602A8FFF7B6
:100FA00085F90446012C1BD19DF80B00C6099DF85C
:100FB0000B0000F07F070120CDE900609DF80A20BA
:100FC0003B4654212820FFF77DFC012000909DF82E
:100FD00009309DF808207C212820FFF711FC10E043
:100FE0000020009003460246542101902820FFF77C
:100FF00069FC0020034602467C2100902820FFF770
:10100000FFFBC2E7100C01400000002000000000C0
:10101000001FE000003FF000003FF000001FE00074
:101020000180060003C00F0003C00F0003C00F00C3
:1010300003C00F0003C00F0003C00F0003C00F0068
:1010400003C00F00030003000000000000000000C8
:10105000000000000300030003C00F0003C00F00E6
:1010600003C00F0003C00F0003C00F0003C00F0038
:1010700003C00F0003C00F0001800600001FE00046
:10108000003FF000003FF000001FE0000000000003
:1010900000000000000080000001800000038000CC
:1010A0000007800000078000000780000007800024
:1010B0000007800000078000000780000007800014
:1010C0000007800000018000000000000000000018
:1010D0000000000000018000000780000007800081
:1010E00000078000000780000007800000078000E4
:1010F00000078000000780000007800000038000D8
:1011000000018000000080000000000000000000DE
:10111000001FE000003FF00000FFF00001FFE000D2
:101120000000060000000F0000000F0000000F008C
:1011300000000F0000000F0000000F0000000F0073
:1011400000000F00001FE300007FF800007FF800A0
:10115000001FE0000300000003C0000003C0000007
:1011600003C0000003C0000003C0000003C0000073
:1011700003C0000003C0000001800000001FF00059
:10118000003FF800003FFC00001FFE0000000000D0
:1011900003FF800001FFC00000FFC000007F80004F
:1011A0000000180000003C0000003C0000003C0073
:1011B00000003C0000003C0000003C0000003C003F
:1011C00000003C00007F8C0001FFE00001FFF00008
:1011D000007F800000000C0000003C0000003C008C
:1011E00000003C0000003C0000003C0000003C000F
:1011F00000003C0000003C0000001800007F800060
:1012000000FFC00001FFC00003FF800000000000DD
:10121000000000000200010003000300038007003B
:1012200003C00F0003C00F0003C00F0003C00F0076
:1012300003C00F0003C00F0003C00F0003C00F0066
:1012400003C00F00031FE300007FF800007FFC00D5
:10125000001FE0000000030000000F0000000F006E
:1012600000000F0000000F0000000F0000000F0042
:1012700000000F0000000F0000000F00000007003A
:10128000000003000000010000000000000000005A
:10129000001FFC00003FF800003FF000001FE000CE
:1012A0000180000003C0000003C0000003C0000074
:1012B00003C0000003C0000003C0000003C0000022
:1012C00003C00000031FE000007FF800007FF8006B
:1012D000001FE0000000030000000F0000000F00EE
:1012E00000000F0000000F0000000F0000000F00C2
:1012F00000000F0000000F0000000600003FE000AB
:10130000007FF00000FFF00001FFE000000000009F
:10131000001FFC00003FF800003FF000001FE0004D
:101320000180000003C0000003C0000003C00000F3
:1013300003C0000003C0000003C0000003C00000A1
:1013400003C00000031FE000007FF800007FFC00E6
:10135000001FE0000300030003C00F0003C00F00E4
:1013600003C00F0003C00F0003C00F0003C00F0035
:1013700003C00F0003C00F0001800600001FE00043
:10138000003FF000003FF000001FE0000000000000
:1013900007FFE00003FFC00001FF880000FF180006
:1013A000000038000000780000007800000078009D
:1013B000000078000000780000007800000078004D
:1013C000000078000000180000000000000000008D
:1013D0000000000000001800000078000000780005
:1013E000000078000000780000007800000078001D
:1013F000000078000000780000007800000038004D
:1014000000001800000008000000000000000000BC
:10141000001FE000003FF000003FF000001FE00070
:101420000180060003C00F0003C00F0003C00F00BF
:1014300003C00F0003C00F0003C00F0003C00F0064
:1014400003C00F00031FE300007FF800007FFC00D3
:10145000001FE0000300030003C00F0003C00F00E3
:1014600003C00F0003C00F0003C00F0003C00F0034
:1014700003C00F0003C00F0001800600001FE00042
:10148000003FF000003FF000001FE00000000000FF
:10149000001FE000003FF000003FF000001FE000F0
:1014A0000180060003C00F0003C00F0003C00F003F
:1014B00003C00F0003C00F0003C00F0003C00F00E4
:1014C00003C00F00031FE300007FF800007FFC0053
:1014D000001FE0000000030000000F0000000F00EC
:1014E00000000F0000000F0000000F0000000F00C0
:1014F00000000F0000000F0000000600001FE000C9
:10150000003FF000007FF00000FFE000000000005E
:1015100000000000000000000000000000000000CB
:1015200000000000000000000000000000000000BB
:1015300000000000000000000000000000000000AB
:10154000000000000000000000000000000000009B
:10155000000000000000000000000000000000008B
:10156000007800000078000000780000007800009B
:10157000007800000078000000000000000000007B
:10158000000000000000000000000000000000005B
:10159000000000000000000000000000000000004B
:1015A0000000000000000000000000000007000034
:1015B000000F8000000F8000000F80000007000077
:1015C000000000000000000000000000000000001B
:1015D000000000000000000000070000000F800075
:1015E000000F8000000F80000007000000000000D6
:1015F00000000000000000000000000000000000EB
:1016000000000000000000000000000000000000DA
:1016100000000000000000000000000007C00600FD
:101620000FE0060000000C003018180030181800F9
:101630003018300030183000301860003008C0001A
:1016400007C0C0000FE080000000000000000FE0B5
:10165000000607C000063018000C3018000C3018C7
:1016600000183018003030180030301800600000CA
:1016700000C00FE000C007C0000000000000000034
:10168000000000000000000000000000000000005A
:10169000000000000000000000000000000000004A
:1016A000000000000700E0000887FC00088E03002F
:1016B000089801800718008000300000003000000A
:1016C000007000000060000000600000006000008A
:1016D00000600000006000000070000000300000AA
:1016E000003000000038000000180100000C03006A
:1016F0000007FC000001F0000000000000000000F6
:1017000000000000000000000000000000000000D9
:1017100000000000000000000000000000000000C9
:1017200000000000000000000000000000000000B9
:1017300000000000000000000000000000000000A9
:101740000000000000000000003FF000007FF000FB
:10175000007FE00000FFC00000000000000000006B
:101760000000000000000000000000000000000079
:101770000000000000000000000000000000000069
:101780000000000000000000000000000000000059
:101790000000000000000000000000000200003E09
:1017A000000006000006000006000006000006001B
:1017B000000600000600000600000600000600000B
:1017C0000600000600000600003FC0000000000008
:1017D0000000000000000000000000000000000009
:1017E000000000001F000021800040C00060C00019
:1017F00060C00000C00000800001800003000006FF
:10180000000004000008000010400020400060407C
:10181000007FC00000000000000000000000000089
:101820000000000000000000000000001E00006337
:1018300000006180006180000180000180000300E1
:10184000000E000001800000800000C00000C00009
:1018500060C00060C0006180001F00000000000048
:101860000000000000000000000000000000000078
:10187000000000000180000180000380000580005E
:101880000580000980001180001180002180004146
:1018900080007FF000018000018000018000018055
:1018A0000007E00000000000000000000000000051
:1018B0000000000000000000000000003FC0002009
:1018C00000002000002000002000002000002F0069
:1018D0000031800020C00000C00000C00060C000D7
:1018E00060C0004180002180001F00000000000057
:1018F00000000000000000000000000000000000E8
:101900000000000007800018C00030C00030000058
:1019100020000060000067800068C0007060006008
:10192000600060600060600020600030400018C00F
:10193000000F000000000000000000000000000098
:101940000000000000000000000000001FE0003068
:101950006000204000208000008000008000010026
:10196000000100000200000200000200000600006A
:10197000060000060000060000060000000000004F
:101980000000000000000000000000000000000057
:10199000000000001F800030C00060600060600038
:1019A00060600030400038C0000F0000138000303D
:1019B000C00060600060600060600060600030C077
:1019C000000F800000000000000000000000000088
:1019D0000000000000000000000000000F000030C8
:1019E000800030C0006040006060006060006060A7
:1019F0000060E0003160001E600000600000C00078
:101A000000C0003080003180001E00000000000097
:101A100000000000000000000000000000000000C6
:101A2000000000000F000019800030C00030C0002E
:101A30006060006060006060006060006060006086
:101A4000600060600060600030C00030C00019803D
:101A5000000F000000000000000000000000000077
:101A60000000000000000000000000000000000076
:101A70000000000000000000000000000000000066
:101A8000001C00001C00001C000000000000000002
:101A90000000001C00001C00001C000000000000F2
:101AA0000000000000000000000000000000000036
:101AB0000000000000000000000000000000000026
:101AC0000000000000000000000000000000000016
:101AD0000000000000000000000000380000380096
:101AE00000380000000000000000000000000000BE
:101AF0000000000000000C0000121F80123068126D
:101B000060180CC018008008018008018000018066
:101B10000001800001800001800000800000C00002
:101B200000C0100060200038C0000F00000000005E
:101B3000000000000000000001000003000002009F
:101B40000807FFFC040C00080C00100C00200C001F
:101B5000400C2007FFF0060C00060C00060C0006E7
:101B60000C007FFFFC000C00000C00000C00000CBF
:101B700000000C00000C0000080000000000000045
:101B800000000000004003FFE003004001004001AE
:101B9000004001004001FFC0010040010040010081
:101BA0004003004003FFC003004003004002004028
:101BB0000200400600400400400806401001C0201A
:101BC000008000000000000000000004002007FF6B
:101BD000E004002004002004002004002004002071
:101BE00004002007FFE0040020040020040020047B
:101BF000002004002004002004002004002007FF2F
:101C0000E0040020040020040000000000C4E308F9
:101C1000800880088011FE11023204342050209187
:101C2000281124122412221422102010A01040BACD
:101C3000C3100010FC10041008FC102420242025E0
:101C4000FE24204820282010202820442084A000A2
:101C500040CAC002201220122012201220FFFE12C1
:101C60002012201220122013E01000100010001F7C
:101C7000FC0000BDE700001FF0111011101FF01153
:101C80001011101FF002800C603458C44604400844
:101C9000400840104000000000000000000000006C
:101CA0000000000000000000000000000000000034
:101CB0000000000000000000000000000000000024
:101CC0000000000000000000000000000000000014
:101CD0000000000000000000000000000000000004
:101CE00000000000000000000000000000000000F4
:101CF00000000000000000000000000000000000E4
:101D000000FFFFFFFFFFFFFFFFFFFFFFFFFFFFFFE2
:101D1000FFFFFFFFFFFFFFFFFFFFFFFFFFFFFFFFD3
:101D2000FFFFFFFFFFFFFFFFFFFFFFFFFFFFFFFFC3
:101D3000FFFFFFFFFFFFFFFFFFFFFFFFFFFFFFFFB3
:101D4000FFFFFFFFFFFFFFFFFFFFFFFFFFFFFFFFA3
:101D5000FFFFFFFFFFFFFFFFFFFFFFFFFF7DEF1410
:101D6000A514A57DEFFFFFFFFFFFFFFFFFFFFFFFB4
:101D7000FFFFFFFFFFFFFFFFFFFFFFFFFFFFFFFF73
:101D8000FFFFFFFFFFFFFFFFFFFFFFFFFFFFFFFF63
:101D9000FFFFFFFFFFFFFFFFFFFFFFD7BD45292C20
:101DA000632C634529D7BDFFFFFFFFFFFFFFFFFF48
:101DB000FFFFFFFFFFFFFFFFFFFFFFFFFFFFFFFF33
:101DC000FFFFFFFFFFFFFFFFFFFFFFFFFFFFFFFF23
:101DD000FFFFFFFFFFFFFFFFFF7DEF652918C6FF35
:101DE000FFFFFF38C665299DEFFFFFFFFFFFFFFFE5
:101DF000FFFFFFFFFFFFFFFFFFFFFFFFFFFFFFFFF3
:101E0000FFFFFFFFFFFFFFFFFFFFFFFFFFFFFFFFE2
:101E1000FFFFFFFFFFFFFFFFFF96B58A52FFFFFFA7
:101E2000FFFFFFFFFF8A5234AD3CFFFFFFFFFFFFC4
:101E3000FFFFFFFFFFFFFFFFFFFFFFFFFFFFFFFFB2
:101E4000FFFFFFFFFFFFFFFFFFFFFFFFFFFFFFFFA2
:101E5000FFFFFFFFFFFFFFFFFF55AD0C5B5DFF9531
:101E6000ED95ED5DFF6D634D93CFDBBEF7FFFFFF9B
:101E7000FFFFFFFFFFFFFFFFFFFFFFFFFFFFFFFF72
:101E8000FFFFFFFFFFFFFFFFFFFFFFFFFFFFFFFF62
:101E9000FFFFFFFFFFFFFFFFFF55AD6D5B96FD00EE
:101EA000D000D0B6FDCF63AF9B92E4FFFFFFFFFFF2
:101EB000FFFFFFFFFFFFFFFFFFFFFFFFFFFFFFFF32
:101EC000FFFFFFFFFFFFFFFFFFFFFFFFFFFFFFFF22
:101ED000FFFFFFFFFFFFFFFFFF55AD6D5BB6FD008E
:101EE000D000D0D6FDCF63AF9B51E479F67DFFFFE4
:101EF000FFFFFFFFFFFFFFFFFFFFFFFFFFFFFFFFF2
:101F0000FFFFFFFFFFFFFFFFFFFFFFFFFFFFFFFFE1
:101F1000FFFFFFFFFFFFFFFFFF55AD6D5BB6FD004D
:101F2000D000D0D6FDCF63CF9BEFE3CAD2F7EDFF51
:101F3000FFFFFFFFFFFFFFFFFFFFFFFFFFFFFFFFB1
:101F4000FFFFFFFFFFFFFFFFFFFFFFFFFFFFFFFFA1
:101F5000FFFFFFFFFFFFFFFFFF55AD6D5BB6FD000D
:101F6000D000D0D6FDCF63AE9B72E4DFFFFFFFFF52
:101F7000FFFFFFFFFFFFFFFFFFFFFFFFFFFFFFFF71
:101F8000FFFFFFFFFFFFFFFFFFFFFFFFFFFFFFFF61
:101F9000FFFFFFFFFFFFFFFFFF55AD6D5BB6FD00CD
:101FA000D000D0D6FDAE63CF9BB3E4BEFFFFFFFFF2
:101FB000FFFFFFFFFFFFFFFFFFFFFFFFFFFFFFFF31
:101FC000FFFFFFFFFFFFFFFFFFFFFFFFFFFFFFFF21
:101FD000FFFFFFFFFFFFFFFFFF55AD6D5BB6FD008D
:101FE000D000D0D6FDCF63AE9B51E4FFFFFFFFFFD3
:101FF000FFFFFFFFFFFFFFFFFFFFFFFFFFFFFFFFF1
:10200000FFFFFFFFFFFFFFFFFFFFFFFFFFFFFFFFE0
:10201000FFFFFFFFFFFFFFFFFF55AD6D5BB6FD004C
:10202000D000D0D6FDCF63CE9BEFE32CDB38EEFFA4
:10203000FFFFFFFFFFFFFFFFFFFFFFFFFFFFFFFFB0
:10204000FFFFFFFFFFFFFFFFFFFFFFFFFFFFFFFFA0
:10205000FFFFFFFFFFFFFFFFFF55AD6D5BB6FD000C
:10206000D000D0D6FDAE63EF9BB2ECD6ED3CF7FFCF
:10207000FFFFFFFFFFFFFFFFFFFFFFFFFFFFFFFF70
:10208000FFFFFFFFFFFFFFFFFFFFFFFFFFFFFFFF60
:10209000FFFFFFFFFFFFFFFFFF55AD6D5BB6FD00CC
:1020A000D000D0D6FDCF63AE9B71E4FFFFFFFFFFF2
:1020B000FFFFFFFFFFFFFFFFFFFFFFFFFFFFFFFF30
:1020C000FFFFFFFFFFFFFFFFFFFFFFFFFFFFFFFF20
:1020D000FFFFFFFFFFFFFFFFFF55AD6D5BB6FD008C
:1020E000D000D0D6FDCF63AF9B72E4FFFFFFFFFFB0
:1020F000FFFFFFFFFFFFFFFFFFFFFFFFFFFFFFFFF0
:10210000FFFFFFFFFFFFFFFFFFFFFFFFFFFFFFFFDF
:10211000FFFFFFFFFFFFFFFFFF55AD6D5BB6FD004B
:10212000D000D0D6FDCF63CF9B51E4D6ED3CF7FF76
:10213000FFFFFFFFFFFFFFFFFFFFFFFFFFFFFFFFAF
:10214000FFFFFFFFFFFFFFFFFFFFFFFFFFFFFFFF9F
:10215000FFFFFFFFFFFFFFFFFF75AD0C53D6FD0034
:10216000D000D0D6FD6D5BCF9B10EC2CD338EEFFAA
:10217000FFFFFFFFFFFFFFFFFFFFFFFFFFFFFFFF6F
:10218000FFFFFFFFFFFFFFFFFFFFFFFFFFFFFFFF5F
:10219000FFFFFFFFFFFFFF9AD64529F38CD7FD0015
:1021A000D000D0D6FDD39486291CD7FFFFFFFFFFB8
:1021B000FFFFFFFFFFFFFFFFFFFFFFFFFFFFFFFF2F
:1021C000FFFFFFFFFFFFFFFFFFFFFFFFFFFFFFFF1F
:1021D000FFFFFFFFFFDBDE042155ADFFFFB2E40090
:1021E000D000D0B2E4FFFF55AD0421DBDEFFFFFFDE
:1021F000FFFFFFFFFFFFFFFFFFFFFFFFFFFFFFFFEF
:10220000FFFFFFFFFFFFFFFFFFFFFFFFFFFFFFFFDE
:10221000FFFFFFFFFF0842F39CFFFFAEDB41D00052
:10222000D800D841D0AEDBFFFFF39C0842FFFFFF90
:10223000FFFFFFFFFFFFFFFFFFFFFFFFFFFFFFFFAE
:10224000FFFFFFFFFFFFFFFFFFFFFFFFFFFFFFFF9E
:10225000FFFFFFF7BD0842FFFFEFE300D000D8000B
:10226000D800D800D800D0EFE3FFFF0842F7BDFF49
:10227000FFFFFFFFFFFFFFFFFFFFFFFFFFFFFFFF6E
:10228000FFFFFFFFFFFFFFFFFFFFFFFFFFFFFFFF5E
:10229000FFFFFFAE73718CBEFF41D000D800D800A5
:1022A000D800D800D800D841D0BEFF718CAE73FFE3
:1022B000FFFFFFFFFFFFFFFFFFFFFFFFFFFFFFFF2E
:1022C000FFFFFFFFFFFFFFFFFFFFFFFFFFFFFFFF1E
:1022D000FFFFFFEB5AD7AD38FE00D000D800D80082
:1022E000D800D800D800D800D058FED7ADEB5AFFA0
:1022F000FFFFFFFFFFFFFFFFFFFFFFFFFFFFFFFFEE
:10230000FFFFFFFFFFFFFFFFFFFFFFFFFFFFFFFFDD
:10231000FFFFFF2C6375A579FE00D000D800D80020
:10232000D800D800D800D800D079FE95A52C63FF3E
:10233000FFFFFFFFFFFFFFFFFFFFFFFFFFFFFFFFAD
:10234000FFFFFFFFFFFFFFFFFFFFFFFFFFFFFFFF9D
:10235000FFFFFF718C6D6BFFFF81D000D800D800AC
:10236000D800D800D800D881D0FFFF6D6B9294FFC1
:10237000FFFFFFFFFFFFFFFFFFFFFFFFFFFFFFFF6D
:10238000FFFFFFFFFFFFFFFFFFFFFFFFFFFFFFFF5D
:10239000FFFFFF3CE74529BEEF13ED00D000D8005A
:1023A000D800D800D800D013EDBEEF45293CE7FF98
:1023B000FFFFFFFFFFFFFFFFFFFFFFFFFFFFFFFF2D
:1023C000FFFFFFFFFFFFFFFFFFFFFFFFFFFFFFFF1D
:1023D000FFFFFFFFFF30842842FFFF34ED24D100D0
:1023E000D000D004D134EDFFFF28423084FFFFFF3E
:1023F000FFFFFFFFFFFFFFFFFFFFFFFFFFFFFFFFED
:10240000FFFFFFFFFFFFFFFFFFFFFFFFFFFFFFFFDC
:10241000FFFFFFFFFFFFFF0C6308421BD7FFFF1BFF
:10242000FF1CFFFFFF1BD7083A0C63FFFFFFFFFFF6
:10243000FFFFFFFFFFFFFFFFFFFFFFFFFFFFFFFFAC
:10244000FFFFFFFFFFFFFFFFFFFFFFFFFFFFFFFF9C
:10245000FFFFFFFFFFFFFFFFFFB294C7398A4ACF9C
:1024600073CF738A4AC739B294FFFFFFFFFFFFFFA4
:10247000FFFFFFFFFFFFFFFFFFFFFFFFFFFFFFFF6C
:10248000FFFFFFFFFFFFFFFFFFFFFFFFFFFFFFFF5C
:10249000FFFFFFFFFFFFFFFFFFFFFFFFFF18C6D398
:1024A0009CD39C18C6FFFFFFFFFFFFFFFFFFFFFF4E
:1024B000FFFFFFFFFFFFFFFFFFFFFFFFFFFFFFFF2C
:1024C000FFFFFFFFFFFFFFFFFFFFFFFFFFFFFFFF1C
:1024D000FFFFFFFFFFFFFFFFFFFFFFFFFFFFFFFF0C
:1024E000FFFFFFFFFFFFFFFFFFFFFFFFFFFFFFFFFC
:1024F000FFFFFFFFFFFFFFFFFFFFFFFFFFFFFFFFEC
:10250000FFFFFFFFFFFFFFFFFFFFFFFFFFFFFFFFDB
:10251000FFFFFFFFFFFFFFFFFFFFFFFFFFFFFFFFCB
:10252000FFFFFFFFFFFFFFFFFFFFFFFFFFFFFFFFBB
:10253000FFFFFFFFFFFFFFFFFFFFFFFFFFFFFFFFAB
:10254000FFFFFFFFFFFFFFFFFFFFFFFFFFFFFFFF9B
:10255000FFFFFFFFFFFFFFFFFFFFFFFFFFFFFF7E0C
:10256000DF7EDFFFFFFFFFFFFFFFFFFFFFFFFFFF3C
:10257000FFFFFFFFFFFFFFFFFFFFFFFFFFFFFFFF6B
:10258000FFFFFFFFFFFFFFFFFFFFFFFFFFFFFFFF5B
:10259000FFFFFFFFFFFFFFFFFFFFFFFFFFFFFFB892
:1025A0004C9844FFFFFFFFFFFFFFFFFFFFFFFFFF10
:1025B000FFFFFFFFFFFFFFFFFFFFFFFFFFFFFFFF2B
:1025C000FFFFFFFFFFFFFFFFFFFFFFFFFFFFFFFF1B
:1025D000FFFFFFFFFFFFFFFFFFFFFFFFFFBCBE3658
:1025E0000336039CB6FFFFFFFFFFFFFFFFFFFFFF68
:1025F000FFFFFFFFFFFFFFFFFFFFFFFFFFFFFFFFEB
:10260000FFFFFFFFFFFFFFFFFFFFFFFFFFFFFFFFDA
:10261000FFFFFFFFFFFFFFFFFFFFFFDFFF1734F7A5
:1026200023172CF72BDFF7FFFFFFFFFFFFFFFFFF55
:10263000FFFFFFFFFFFFFFFFFFFFFFFFFFFFFFFFAA
:10264000FFFFFFFFFFFFFFFFFFFFFFFFFFFFFFFF9A
:10265000FFFFFFFFFFFFFFFFFFFFFFDA8DF502BC6B
:10266000BEDDC6F502BA85FFFFFFFFFFFFFFFFFFDC
:10267000FFFFFFFFFFFFFFFFFFFFFFFFFFFFFFFF6A
:10268000FFFFFFFFFFFFFFFFFFFFFFFFFFFFFFFF5A
:10269000FFFFFFFFFFFFFFFFFF7EDF560BB84CFF82
:1026A000FFFFFFD954560B5EDFFFFFFFFFFFFFFF69
:1026B000FFFFFFFFFFFFFFFFFFFFFFFFFFFFFFFF2A
:1026C000FFFFFFFFFFFFFFFFFFFFFFFFFFFFFFFF1A
:1026D000FFFFFFFFFFFFFFFFFFD95456035DD7FF4A
:1026E000FFFFFF5EDF560BB84CFFFFFFFFFFFFFF52
:1026F000FFFFFFFFFFFFFFFFFFFFFFFFFFFFFFFFEA
:10270000FFFFFFFFFFFFFFFFFFFFFFFFFFFFFFFFD9
:10271000FFFFFFFFFFFFFF9CB6F502BA85FFFFFF3B
:10272000FFFFFFFFFFDA8DF5027CAEFFFFFFFFFF2B
:10273000FFFFFFFFFFFFFFFFFFFFFFFFFFFFFFFFA9
:10274000FFFFFFFFFFFFFFFFFFFFFFFFFFFFFFFF99
:10275000FFFFFFFFFFBEF7D723F72BDFF7FFFFFFDA
:10276000FFFFFFFFFFDFFF1734B71BBEEFFFFFFFC9
:10277000FFFFFFFFFFFFFFFFFFFFFFFFFFFFFFFF69
:10278000FFFFFFFFFFFFFFFFFFFFFFFFFFFFFFFF59
:10279000FFFFFFFFFF5A751503BCBEFFFFFFFFFFE2
:1027A000FFFFFFFFFFFFFFDDC61503396DFFFFFFD2
:1027B000FFFFFFFFFFFFFFFFFFFFFFFFFFFFFFFF29
:1027C000FFFFFFFFFFFFFFFFFFFFFFFFFFFFFFFF19
:1027D000FFFFFFDCC61603396DFFFFFFFFFFFFFFA2
:1027E000FFFFFFFFFFFFFFFFFF5A6D1503BCBEFF9A
:1027F000FFFFFFFFFFFFFFFFFFFFFFFFFFFFFFFFE9
:10280000FFFFFFFFFFFFFFFFFFFFFFFFFFFFFFFFD8
:10281000FFBFF7F72BD71BBEEFFFFFFFFFFFFFFF49
:10282000FFFFFFFFFFFFFFFFFFBFF7D723D723BE49
:10283000EFFFFFFFFFFFFFFFFFFFFFFFFFFFFFFFB8
:10284000FFFFFFFFFFFFFFFFFFFFFFFFFFFFFFFF98
:10285000FF596DF502BCB6FFFFFFFFFFFFFFFFFF53
:10286000FFFFFFFFFFFFFFFFFFFFFFDCBE160319A7
:1028700065FFFFFFFFFFFFFFFFFFFFFFFFFFFFFF02
:10288000FFFFFFFFFFFFFFFFFFFFFFFFFFFFFFFD5A
:10289000C61503396DFFFFFFFFFFFFFFFFFFFFFFBF
:1028A000FFFFFFFFFFFFFFFFFFFFFFFFFF7A751531
:1028B00003DCC6FFFFFFFFFFFFFFFFFFFFFFFFFF80
:1028C000FFFFFFFFFFFFFFFFFFFFFFFFFFFFFFB85F
:1028D0004C9613BEEFFFFFFFFFFFFFFFFFFFFFFF61
:1028E000FFFFFFFFFFFFFFFFFFFFFFFFFFBEEFB692
:1028F0001B9844FFFFFFFFFFFFFFFFFFFFFFFFFFEE
:10290000FFFFFFFFFFFFFFFFFFFFFFFFFF3DD7368A
:10291000039A7DFFFF1DD79CB69CBE1DD7DFFFFF2E
:10292000FFFFFFFFFFFFFFFFFFFFFFFFFFFFFFBAFC
:102930008536031DD7FFFFFFFFFFFFFFFFFFFFFFF0
:10294000FFFFFFFFFFFFFFFFFFFFFFFFFFDB8D36F6
:10295000037EE7DA8D382CD944D944983C98447AE0
:102960007D1DD7FFFFFFFFFFFFFFFFFFFFFFFF5EA4
:10297000DF3603BA85FFFFFFFFFFFFFFFFFFFFFF0B
:10298000FFFFFFFFFFFFFFFFFFFFFFFFFFB9541730
:102990002CDEF798447D7EFD96DD96DD8E5C7E5ABA
:1029A000557834F95C5BAE3EDF7EE7DCC6FB95DF35
:1029B000F73834984CFFFFFFFFFFFFFFFFFFFFFFDB
:1029C000FFFFFFFFFFFFFFFFFFFFFFFFFF1734D9F0
:1029D0005C7EE7983CDD8EBD8EBD8EBD8EBD8EDDEE
:1029E00096BD8EDB65D944983C9844D93CF7237E4C
:1029F000E71965F72BFFFFFFFFFFFFFFFFFFFFFF5B
:102A0000FFFFFFFFFFFFFFFFFFFFFFFFFFF7233A7F
:102A10006D3DD7B93CDD8E9D8EBD8EBD8EBD8E9D2C
:102A20008EBD8EDD8EDD96BD8EBD8E1E97D9441D6A
:102A3000D77A75D723DFF7FFFFFFFFFFFFFFFFFF09
:102A4000FFFFFFFFFFFFFFFFFFFFFFFFFF172CF957
:102A50005C7EE7983CDD8EBD8EBD8EBD8EBD8EBD8D
:102A60008EBD8EBD8EBD8EBD8EBD8EDD8EB83C5EA4
:102A7000DF1965F72BFFFFFFFFFFFFFFFFFFFFFFE2
:102A8000FFFFFFFFFFFFFFFFFFFFFFFFFFB954172F
:102A90002CDFFF98445C7EBD8EBD8EBD8EBD8EBD8D
:102AA0008EBD8EBD8EBD8EBD8EBD8E7C7E9844DF6C
:102AB000F73734984CFFFFFFFFFFFFFFFFFFFFFFDB
:102AC000FFFFFFFFFFFFFFFFFFFFFFFFFF1B96154D
:102AD000035EDFFB95F944FD969D8EBD8EBD8EBDD8
:102AE0008EBD8EBD8EBD8E9D8EFD96F944DB8D7E96
:102AF000E73603DB8DFFFFFFFFFFFFFFFFFFFFFF59
:102B0000FFFFFFFFFFFFFFFFFFFFFFFFFF9EE796B7
:102B100013D954FFFF984C9B5DFD96BD8E9D8EBDD5
:102B20008EBD8E9D8EBD8EFD96BB5D7844FFFFF9F8
:102B30005C760B7EE7FFFFFFFFFFFFFFFFFFFFFF5E
:102B4000FFFFFFFFFFFFFFFFFFFFFFFFFFFFFFDBB9
:102B50008DF5023B9EDFF7784419459D86FD96DD95
:102B600096DD96FD969D8619457844BEF75BA6F5E1
:102B700002BA85FFFFFFFFFFFFFFFFFFFFFFFFFF21
:102B8000FFFFFFFFFFFFFFFFFFFFFFFFFFFFFFFF55
:102B9000FFB854F5023B9EFFFFBA8D783CD93C3913
:102BA0004D394DD944783C9A85FFFF3BA6150398D3
:102BB0004CFFFFFFFFFFFFFFFFFFFFFFFFFFFFFFD8
:102BC000FFFFFFFFFFFFFFFFFFFFFFFFFFFFFFFF15
:102BD000FFBFF7B84CF502F95C5EDFBEF7FDCE5CD7
:102BE000AE5CAEDDC6BEF75EDFF95CF502984CBEAA
:102BF000EFFFFFFFFFFFFFFFFFFFFFFFFFFFFFFFF5
:102C0000FFFFFFFFFFFFFFFFFFFFFFFFFFFFFFFFD4
:102C1000FFFFFFFFFFBA85560B36037844BB8D5C80
:102C2000AE7CAEDB8D7844360356039A7DFFFFFF02
:102C3000FFFFFFFFFFFFFFFFFFFFFFFFFFFFFFFFA4
:102C4000FFFFFFFFFFFFFFFFFFFFFFFFFFFFFFFF94
:102C5000FFFFFFFFFFFFFF5EDF9A7D3834761356DC
:102C6000035603760B17349A7D5EDFFFFFFFFFFFED
:102C7000FFFFFFFFFFFFFFFFFFFFFFFFFFFFFFFF64
:102C8000FFFFFFFFFFFFFFFFFFFFFFFFFFFFFFFF54
:102C9000FFFFFFFFFFFFFFFFFFFFFFFFFFBFEF7E15
:102CA000DF7EDFBFEFFFFFFFFFFFFFFFFFFFFFFF45
:102CB000FFFFFFFFFFFFFFFFFFFFFFFFFFFFFFFF24
:102CC000FFFFFFFFFFFFFFFFFFFFFFFFFFFFFFFF14
:102CD000FFFFFFFFFFFFFFFFFFFFFFFFFFFFFFFF04
:102CE000FFFFFFFFFFFFFFFFFFFFFFFFFFFFFFFFF4
:102CF000FFFFFFFFFFFFFFFFFFFFFFFFFFFFFFFFE4
:102D0000FFFFFFFFFFFFFFFFFFFFFFFFFFFFFFFFD3
:102D1000FFFFFFFFFFFFFFFFFFFFFFFFFFFFFFFFC3
:102D2000FFFFFFFFFFFFFFFFFFFFFFFFFFFFFFFFB3
:102D3000FFFFFFFFFFFFFFFFFFFFFFFFFFFFFFFFA3
:102D4000FFFFFFFFFFFFFFFFFFFFFFFFFFFFFFFF93
:102D5000FFFFFFFFFFFFFFFFFFFFFFFFFFFFFFFF83
:102D6000FFFFFFFFFFFFFFFFFFFFFFFFFFFFFFFF73
:102D7000FFFFFFFFFFFFFFFFFFFFFFFFFFFFFFFF63
:102D8000FFFFFFFFFFFFFFFFFFFFFFFFFFFFFFFF53
:102D9000FFFFFFFFFFAE4277A5FFFFFFFFFFFFFF33
:102DA000FFFFFFFFFFFFFFFFFF579DCF42FFFFFF2A
:102DB000FFFFFFFFFFFFFFFFFFFFFFFFFFFFFFFF23
:102DC000FFFFFFFFFFFFFFFFFFFFFFFFFFFFFFFF13
:102DD000FFFFFFFFFFEC191695FFFFFFFFFFFFFF4F
:102DE000FFFFFFFFFFFFFFFFFFF68CED19FFFFFF67
:102DF000FFFFFFFFFFFFFFFFFFFFFFFFFFFFFFFFE3
:102E0000FFFFFFFFFFFFFFFFFF3AB6178D178D177C
:102E10008D3795168DCD11725317951795178D1700
:102E20008D1795179517951795514BED1917951700
:102E30009517951795178D3ABEFFFFFFFFFFFFFF10
:102E4000FFFFFFFFFFDFFF915BEA00AA19CA19CA63
:102E500019CA21CA198C09CB11CA19AA19AA19AA07
:102E600019AA21AA19AA19CA21AB11AC09CB19AA0E
:102E700021AA21CA19AA190901B263DFFFFFFFFFC6
:102E8000FFFFFFFFFF168D0901CEB4EEFDEDF5CE7D
:102E9000F5EEFDCEEDEB19EE832EFECEF5CEF5CEA2
:102EA000F5CEF5EEF5EEF52EFECD83EB21EFEDED53
:102EB000F5EDF5EEF50EFEADB4E900379DFFFFFF31
:102EC000FFFFFFFFFFF142CC526EFEEDFDEDFDED89
:102ED000FD0DFEEDFD8B11CD8B4DFEEDFDEDFDED00
:102EE000FDEDFDEDFDEDFD4EFEAD83AB19EEFD0DEF
:102EF000FEEDFDEDFDEDFD4EFEAB52314BFFFFFF54
:102F0000FFFFFFFFFFF03A0C632EFECDFDEDFDED60
:102F1000FDEDFDEDFD4DA42DD50DFEEDFDEDFDED21
:102F2000FDCDFDCDFDEDFDEDFD2DD54DA4EEFDED71
:102F3000FDEDFDEDFDEDFD2EFEEB5A1143FFFFFF14
:102F4000FFFFFFFFFFF13A0C632EFEEDFDEDFDEDFF
:102F5000FDEDFDEDFD4DFE0DFEEDFDEDFDEDFDED9F
:102F6000FDEDFDEDFDEDFDEDFD0DFE4DFEEDFDED8F
:102F7000FDEDFDEDFDEDFD4EFEEB5A3143FFFFFF94
:102F8000FFFFFFFFFFF13A0C5B2EFECDFDEEFDCE05
:102F9000FDCEFDEEFDEEFDEEFDEEFDEEFDEEFDEEF9
:102FA000FDEEFDEEFDEEFDEEF5EEF5EEF5EEF5EEE9
:102FB000F5EEF5EEFDEEFD2EFEEC5A3143FFFFFF80
:102FC000FFFFFFFFFF514B4A090A22EA21EB21EBE9
:102FD00021EB21EB21EB21EB21EB21EB21EB21EB91
:102FE00021EB21EB21EB21EB21EB21EB21EB21EB81
:102FF00021EB21EB29EB21EB214A097153FFFFFF64
:10300000FFFFFFFFFF304BEF19575B365337533746
:103010005337533753365337533753375337533662
:103020005337533753375337533753365336533752
:1030300053375337533753575BCF19504BFFFFFF6D
:10304000FFFFFFFFFF0F43B43A3FB5FFACFFACFFFC
:10305000ACFFACFFACFFACFFACFFACFFACFFACFF18
:10306000ACFFACFFACFFACFFACFFACFFACFFACFF08
:10307000ACFFACFFACFFAC3FB5733A304BFFFFFF8A
:10308000FFFFFFFFFF1043933AFFACBF9CBFA4BFFD
:10309000A4BFA4BFA4BFA4BFA4BFA4BFA4BFA4BF18
:1030A0009CBFA4BFA4BF9CBFA4DFA4BE9CBFA4BF01
:1030B000A4BFA4BFA4BFA4FFAC523A304BFFFFFF94
:1030C000FFFFFFFFFF1043933A1FADBF9CBFA4BF9C
:1030D000A4BFA4BFA4BFA4BFA4BFA4BFA4BFA4BFD8
:1030E000A4BFA4BFA4BFA4FFACD44A512ADFA4BF8D
:1030F000A4BFA4BFA4BFA4FFAC7232304BFFFFFF3C
:10310000FFFFFFFFFF1043933A1FADBFA4BFA4BF53
:10311000A4BFA4BFA4DFACDFA49FA4BFA4BFA4BF6F
:10312000A4BFA4BFA4FFACF5520B019763DFACBFF3
:10313000A4BFA4BFA4BFA4FFAC7232304BFFFFFFFB
:10314000FFFFFFFFFF1043933A1FADBFA4BFA4BF13
:10315000A4BFA4BFA4DA7B7D94DFAC9FA4BFA4BFAF
:10316000A4BFA4FFACF54A2B01976B1FADBFA4BF52
:10317000A4BFA4BFA4BFA4FFAC7232304BFFFFFFBB
:10318000FFFFFFFFFF1043933A1FADBFA4BFA4BFD3
:10319000A4BFA4DFA4F021CE199D9CDFAC9FA4BFE7
:1031A000A4FFACF5522B01B86B1FADBFA4BFA4BFE9
:1031B000A4BFA4BFA4BFA4FFAC723A304BFFFFFF73
:1031C000FFFFFFFFFF1043933AFFACBFA4BFA4BFB4
:1031D000A4BFA4DFA47D94AD11AE199E9CDFACFF0B
:1031E000ACD54A2B01B76B1FB5BFA4BFA4BFA4BF0A
:1031F000A4BFA4BFA4BFA4FFAC523A304BFFFFFF53
:10320000FFFFFFFFFF1043933AFFACBFA4BFA4BF73
:10321000A4BFA4BF9CDFAC9D94AE11CF19BD9C157B
:10322000530B01B76B1FADBFA4BFA4BFA4BFA4BF06
:10323000A4BFA4BFA4BFA4FFAC523A304BFFFFFF12
:10324000FFFFFFFFFF1043933AFFACBF9CBFA4BF3B
:10325000A4BFA4BFA49FA4DFAC7D94AE196C096C7D
:1032600001B86B1FADBFA4BFA4BFA4BFA4BFA4BFC0
:10327000A4BFA4BFA4BFA4FFAC523A304BFFFFFFD2
:10328000FFFFFFFFFF1043933A1FADBF9CBFA4BFDA
:10329000A4BFA4BFA4BFA49FA4DFAC7D94312A988F
:1032A0006B1FADBFA4BFA4BFA4BFA4BFA4BFA4BFD6
:1032B000A4BFA4BFA4BFA4FFAC523A304BFFFFFF92
:1032C000FFFFFFFFFF1043933A1FADBF9CBFA4BF9A
:1032D000A4BFA4BFA4BFA4BFA49FA4DFA4FFA4DF76
:1032E000A4BFA4BFA4BFA4BFA4BFA4BFA4BFA4BFC6
:1032F000A4BFA4BFA4BFA4FFAC523A304BFFFFFF52
:10330000FFFFFFFFFF1043933A1FADBF9CBFA4BF59
:10331000A4BFA4BFA4BFA4BFA4BFA4BFA4BFA4BF95
:10332000A4BFA4BFA4BFA4BFA4BFA4BFA4BFA4BF85
:10333000A4BFA4BFA4BFA4FFAC523A304BFFFFFF11
:10334000FFFFFFFFFFF042933A1FADBF9CBFA4BF3A
:10335000A4BFA4BFA4BFA4BFA4BFA4BFA4BFA4BF55
:10336000A4BFA4BFA4BFA4BFA4BFA4BFA4BFA4BF45
:10337000A4BFA4BFA4BFA4FFAC733A304BFFFFFFB0
:10338000FFFFFFFFFF104352323FADBFA4BFA4BFFA
:10339000A4BFA4BFA4BFA4BFA4BFA4BFA4BFA4BF15
:1033A000A4BFA4BFA4BFA4BFA4BFA4BFA4BFA4BF05
:1033B000A4BFA4BFA4BFA41FB5312A504BFFFFFF79
:1033C000FFFFFFFFFF3695EA00D973DE9CBE9C9F8E
:1033D0009C9F9C9F9C9F9C9F9C9F9C9F9C9F9C9F15
:1033E0009C9F9C9F9C9F9C9F9C9F9C9F9C9F9C9F05
:1033F0009C9F9CBF9CBFA4B96BEA00769DFFFFFF1A
:10340000FFFFFFFFFFFFFFD25B0A016D098D118DEA
:10341000118D118D118D118D118D118D118D118DBC
:10342000118D118D118D118D118D118D118D118DAC
:10343000118D118D116D090A01D263FFFFFFFFFF8E
:10344000FFFFFFFFFFFFFFFFFF5AC6379557955756
:10345000955795579557955795579557955795570C
:1034600095579557955795579557955795579557FC
:10347000955795579536957AC6FFFFFFFFFFFFFFDB
:10348000FFFFFFFFFFFFFFFFFFFFFFFFFFFFFFFF4C
:10349000FFFFFFFFFFFFFFFFFFFFFFFFFFFFFFFF3C
:1034A000FFFFFFFFFFFFFFFFFFFFFFFFFFFFFFFF2C
:1034B000FFFFFFFFFFFFFFFFFFFFFFFFFFFFFFFF1C
:1034C000FFFFFFFFFFFFFFFFFFFFFFFFFFFFFFFF0C
:1034D000FFFFFFFFFFFFFFFFFFFFFFFFFFFFFFFFFC
:1034E000FFFFFFFFFFFFFFFFFFFFFFFFFFFFFFFFEC
:1034F000FFFFFFFFFFFFFFFFFFFFFFFFFFFFFFFFDC
:10350000FFFFFFFFFFFFFFFFFFFFFFFFFFFFFFFFCB
:10351000FFFFFFFFFFFFFFFFFFFFFFFFFFFFFFDFDB
:10352000FFDFFFFFFFFFFFFFFFFFFFFFFFFFFFFFCB
:10353000FFFFFFFFFFFFFFFFFFFFFFFFFFFFFFFF9B
:10354000FFFFFFFFFFFFFFFFFFFFFFFFFFFFFFFF8B
:10355000FFFFFFFFFFFFFF9ACE14953174B0638F1A
:103560005B6F53AF5B116CD48C59C6DFFFFFFFFF5D
:10357000FFFFFFFFFFFFFFFFFFFFFFFFFFFFFFFF5B
:10358000FFFFFFFFFFFFFFFFFFFFFFFFFFFFFFFF4B
:10359000FFBEF7359D2D4B4A2A092209220922092F
:1035A0002209220922092209222A2AEC42F4947DC6
:1035B000EFFFFFFFFFFFFFFFFFFFFFFFFFFFFFFF2B
:1035C000FFFFFFFFFFFFFFFFFFFFFFFFFFFFFF18F2
:1035D000BE0D4B2A224A2A4A2AAB3A4E53106C524D
:1035E0007C527C11746E5BAC3A4A2A2A2A0922CC9E
:1035F00042D7ADFFFFFFFFFFFFFFFFFFFFFFFFFF12
:10360000FFFFFFFFFFFFFFFFFFFFFFFFFFF4942A15
:103610002A4A2A2A2A2D4B14957ACE3CE77DEF7D43
:10362000EF5DEF5DE71CDF7ACE359D4E532A2A4AC7
:103630002A2A229284FFFFFFFFFFFFFFFFFFFFFF09
:10364000FFFFFFFFFFFFFFFFFFFFFF928409224AFA
:103650002A8B3214953DE7BEF77EEF7DEF5DEF5D7F
:10366000EF5DEF5DEF5DEF5DEF5DEF1CDF359DAC76
:103670003A4A2A0922116CDFFFFFFFFFFFFFFFFF1D
:10368000FFFFFFFFFFFFFFFFFFF49409224A2AED2F
:10369000427AC6DFFF7DEF5DEF5DEF5DEF5DEF5DD1
:1036A000EF5DEF5DEF5DEF5DEF5DEF5DE75DEF79A6
:1036B000C62E534A2A09227284FFFFFFFFFFFFFF35
:1036C000FFFFFFFFFFFFFF39BE2A2A4A2AED42FB18
:1036D000DEDFFF5DEF5DEF5DEF5DEF5DEF5DEF5D09
:1036E000EF5DEF5DEF5DEF5DEF5DEF7DEF5DEF5D5A
:1036F000E7BAD62E534A2A2A2AB7ADFFFFFFFFFFAB
:10370000FFFFFFFFFFBEF70D4B4A2A8B3A9ACEBF51
:10371000F75DE75DEF5DEF5DEF5DEF5DEF5DEF5D49
:10372000EF5DEF5DEF5DEF5DEF5DEF5DEF5DEF5D39
:10373000EF3DE779C6CC424A2AAC3A7DEFFFFFFF66
:10374000FFFFFFFFFF559D0A222A2A359DDFFF5DFF
:10375000EF5DEF5DEF5DEF5DEF5DEF5DEF5DEF5D09
:10376000EF5DEF5DEF5DEF5DE75DEF5DEF5DE75D09
:10377000EF5DEF5DEF559D2A2A092AD38CFFFFFFED
:10378000FFFFFFFFFF2D4B2A2A2E4B7DEF7DEF5DC4
:10379000EF5DEF5DEF3DE79EF7DFFF7EEF5DEF5DF5
:1037A000EF5DEF5DEF5DEF5DE75DEF5DEF5DEF5DC1
:1037B000EF7DEF5DEF1CE76F5B2A2ACC42BEF7FF7F
:1037C000FFFFFF9ACE4A2A2A2A559DDFFF5DE75D5B
:1037D000E75DEF5DEF9EF7D7B5727C7DEF9EF75DFD
:1037E000EF5DEF5DEF7DEF5DEF5DEF5DEF5DEF5D59
:1037F000EF5DEF7DEF7DEF76A54A2A2A2A18BEFFFE
:10380000FFFFFF15950A22AC3ADBD69EF75DE75D18
:10381000EF5DEF5DEFDFFF527C0601D06B9EF79E00
:10382000F75DEF9EEFBEEF5DEF5DEF5DEF5DEF5D8E
:10383000EF5DEF7DEF7DEFBBD6EC420A229384FF74
:10384000FFFFFF317409226E5B7EEF5DEF5DEF5D80
:10385000EF5DEF5DEF7EEF7DEFD06B67118F631C47
:10386000E7BEF738EE50EC7DEF5DEF5DEF5DEF5DAD
:10387000EF5DEF5DEF7DEF5DE7B0630A22AF5BFFC9
:10388000FFFFFFAF5B09223174BEF75DEF5DEF5DB7
:10389000EF5DEF5DEF5DEF9EF79EF78F634A32FBC2
:1038A000D6FFFF0FEC75FDFFFFDFFFBFF7DFFFDF88
:1038B000FF5DEF5DEF7DEF7EEF727C092A4E53BE18
:1038C000F7FFFF8F5B09229284BFFF5DEF5DEF5D25
:1038D000EF5DEF5DEF5DEF5DEF9EF71CE7DBD6720E
:1038E0007CAF631CE73595D48CD494D494D38C35B9
:1038F0009D5DE75DEF7DEF9EF7D38C092A2D4B9EF2
:10390000EFDFFF6F53E9219284DFFF5DEF5DEF5D35
:10391000EF5DEF5DEF5DEF5DEF7DEF5DE7BEF7D053
:10392000634E531CDF527C3174317C3174117493BB
:10393000845DE77DEF5DEF9EF7D48C2A220D4B7EF0
:10394000EFFFFF8F5B09223174BFF75DEF5DEF5D25
:10395000EF5DEF5DEF5DEF5DEFDFEF59EE8DD31CB7
:10396000E75DE79EEFBEF7BEF7BEF7BEF7BEF7DF37
:10397000FF7DEF5DEF7DEF9EF7727C2A224E4BBEFE
:10398000F7FFFF116C09228F5B7EEF5DEF5DEF5D4E
:10399000EF5DEF5DEF5DEFDFEF9AEEA9EA34E53D15
:1039A000DF3CE75DEF5DEF5DEF5DEF5DEF5DEF5DF0
:1039B000EF5DEF5DEF7DEF7DEFD06309228F5BFF61
:1039C000FFFFFFF48C0922AC3AFBDE9EF75DEF5D52
:1039D000EF5DEF5DEFDFEFBAEE89E275EDFFEF5DD2
:1039E000EF5DEF5DEF5DEF7DEF5DEF5DEF5DEF5D57
:1039F000EF5DEF5DEF9EEFFCDEED420922727CFF92
:103A0000FFFFFF79C62A2A2A2A76A5DFFF5DE75D38
:103A1000EF5DEF9EEF79EE89E275EDFFEF5DEF5D13
:103A2000EF5DEF5DEF5DEF5DEF5DEF5DEF5DEF5D36
:103A3000EF5DEF5DEFBEF7B7AD4A2A0922D7ADFFC4
:103A4000FFFFFFDFFFEC422A2A4E539EEF5DEF5D42
:103A5000EF5DEFBEEF54ED54EDDFEF5DEF5DEF5D39
:103A6000EF5DEF5DEF5DEF5DEF5DEF5DEF5DEF5DF6
:103A7000EF5DEF5DEF9EF7B0632A2A8B3A7EEFFF92
:103A8000FFFFFFFFFFF49409222A2A76A5DFFF5DDE
:103A9000E75DEF5DEF9EEFBEEF5DEF5DEF5DEF5D2C
:103AA000EF5DEF5DEF5DEF5DEF5DEF5DEF5DEF5DB6
:103AB000EF5DEFDFFFD8B54A2A0922727CFFFFFFD6
:103AC000FFFFFFFFFF7DEFCC424A2AAC3ADBDEBEB0
:103AD000F75DEF5DEF5DEF5DEF5DEF5DEF5DEF5D7E
:103AE000EF5DEF5DEF5DEF5DEF5DEF5DEF5DEF5D76
:103AF000EFBEF73CE7ED424A2A8B323CE7FFFFFF7F
:103B0000FFFFFFFFFFFFFFD7AD09224A2A2E533DDB
:103B1000E7BFF75DEF5DEF5DEF5DEF5DEF5DEF5DE3
:103B2000EF5DEF5DEF5DEF5DEF5DEF5DEF5DEFBED4
:103B3000F77EEFAF632A2A0922559DFFFFFFFFFFA3
:103B4000FFFFFFFFFFFFFFFFFF727C09222A2A4EC3
:103B500053FCDEDFFF5DEF5DEF5DEF5DEF5DEF5D81
:103B6000EF5DEF5DEF5DEF5DEF5DEF5DEFDFFF3D83
:103B7000E7AF632A2A0A22106CFFFFFFFFFFFFFF57
:103B8000FFFFFFFFFFFFFFFFFFDFFFF06B09224A90
:103B90002AAC4297AD9EF7DFFF7EEF5DEF5DEF5DF4
:103BA000EF5DEF5DEF7DEF7DEFBFF7DFFF18BE0D3F
:103BB0004B2A2A09228F5BBEF7FFFFFFFFFFFFFFA3
:103BC000FFFFFFFFFFFFFFFFFFFFFFDFFF527C094B
:103BD0002A4A2A2A2A8F5BB7AD1CE7BEF7DFFFDF30
:103BE000FFDFFFDFFFBEF75DE718BEF06B4A2A4A32
:103BF0002A0922F06BBEF7FFFFFFFFFFFFFFFFFF69
:103C0000FFFFFFFFFFFFFFFFFFFFFFFFFFFFFF962D
:103C1000ADAB3A09222A2A2A2AEC42D06B938414AB
:103C2000951595B38CF16B0D4B4A2A2A2A0A2A8BDB
:103C300032359DFFFFFFFFFFFFFFFFFFFFFFFFFF8D
:103C4000FFFFFFFFFFFFFFFFFFFFFFFFFFFFFFFF84
:103C5000FF3DE7B384AC3A092A0A2A092A0A2A2A2C
:103C60002A0A2A092209220922092A8B3A727C1C73
:103C7000DFFFFFFFFFFFFFFFFFFFFFFFFFFFFFFF74
:103C8000FFFFFFFFFFFFFFFFFFFFFFFFFFFFFFFF44
:103C9000FFFFFFFFFF9EF7F8B5727C8F5B0D4BECCB
:103CA00042EC420D4B8F5B5274B7AD7DEFFFFFFFCF
:103CB000FFFFFFFFFFFFFFFFFFFFFFFFFFFFFFDF34
:103CC000FFFFFFFFFFFFFFFFFFFFFFFFFFFFFFFF04
:103CD000FFFFFFFFFFFFFFFFFFFFFFFFFF9EEF5D07
:103CE000E75DE77DEFDFFFFFFFFFFFFFFFFFFFFF68
:103CF000FFFFFFFFFFDFFFDFFFDFFFDFFFDFFFDF94
:103D0000FF000000243D0008000000201400000017
:103D100028010008383D0008140000206406000057
:103D20004401000800A24A04000000000000000056
:083D3000010203040607080963
:04000005080000ED02
:00000001FF
